{
  "contractName": "SurveyReward",
  "abi": [
    {
      "inputs": [
        {
          "internalType": "bytes32",
          "name": "id",
          "type": "bytes32"
        },
        {
          "internalType": "address",
          "name": "surveyor",
          "type": "address"
        }
      ],
      "name": "E_ExistingSubmission",
      "type": "error"
    },
    {
      "inputs": [
        {
          "internalType": "bytes32",
          "name": "id",
          "type": "bytes32"
        }
      ],
      "name": "E_ExistingSurvey",
      "type": "error"
    },
    {
      "inputs": [
        {
          "internalType": "bytes32",
          "name": "id",
          "type": "bytes32"
        }
      ],
      "name": "E_NonExistentSurvey",
      "type": "error"
    },
    {
      "anonymous": false,
      "inputs": [
        {
          "indexed": true,
          "internalType": "address",
          "name": "previousOwner",
          "type": "address"
        },
        {
          "indexed": true,
          "internalType": "address",
          "name": "newOwner",
          "type": "address"
        }
      ],
      "name": "OwnershipTransferred",
      "type": "event"
    },
    {
      "anonymous": false,
      "inputs": [
        {
          "indexed": false,
          "internalType": "address",
          "name": "surveyor",
          "type": "address"
        },
        {
          "indexed": false,
          "internalType": "uint256",
          "name": "amount",
          "type": "uint256"
        }
      ],
      "name": "SentReward",
      "type": "event"
    },
    {
      "inputs": [],
      "name": "owner",
      "outputs": [
        {
          "internalType": "address",
          "name": "",
          "type": "address"
        }
      ],
      "stateMutability": "view",
      "type": "function",
      "constant": true
    },
    {
      "inputs": [],
      "name": "renounceOwnership",
      "outputs": [],
      "stateMutability": "nonpayable",
      "type": "function"
    },
    {
      "inputs": [],
      "name": "rewardToken",
      "outputs": [
        {
          "internalType": "address payable",
          "name": "",
          "type": "address"
        }
      ],
      "stateMutability": "view",
      "type": "function",
      "constant": true
    },
    {
      "inputs": [
        {
          "internalType": "address",
          "name": "newOwner",
          "type": "address"
        }
      ],
      "name": "transferOwnership",
      "outputs": [],
      "stateMutability": "nonpayable",
      "type": "function"
    },
    {
      "inputs": [
        {
          "internalType": "bytes32",
          "name": "_id",
          "type": "bytes32"
        },
        {
          "internalType": "string",
          "name": "_name",
          "type": "string"
        },
        {
          "internalType": "string",
          "name": "_data",
          "type": "string"
        }
      ],
      "name": "addSurvey",
      "outputs": [],
      "stateMutability": "nonpayable",
      "type": "function"
    },
    {
      "inputs": [
        {
          "internalType": "address payable",
          "name": "_rewardToken",
          "type": "address"
        }
      ],
      "name": "setRewardToken",
      "outputs": [],
      "stateMutability": "nonpayable",
      "type": "function"
    },
    {
      "inputs": [
        {
          "internalType": "bytes32",
          "name": "_surveyId",
          "type": "bytes32"
        },
        {
          "internalType": "string",
          "name": "data",
          "type": "string"
        }
      ],
      "name": "addSurveySubmission",
      "outputs": [],
      "stateMutability": "nonpayable",
      "type": "function"
    }
  ],
  "bytecode": "0x608060405234801561001057600080fd5b5061002d61002261003260201b60201c565b61003a60201b60201c565b6100fe565b600033905090565b60008060009054906101000a900473ffffffffffffffffffffffffffffffffffffffff169050816000806101000a81548173ffffffffffffffffffffffffffffffffffffffff021916908373ffffffffffffffffffffffffffffffffffffffff1602179055508173ffffffffffffffffffffffffffffffffffffffff168173ffffffffffffffffffffffffffffffffffffffff167f8be0079c531659141344cd1fd0a4f28419497f9722a3daafe3b4186f6b6457e060405160405180910390a35050565b6110b48061010d6000396000f3fe608060405234801561001057600080fd5b506004361061007d5760003560e01c80638aee81271161005b5780638aee8127146100c45780638da5cb5b146100e0578063f2fde38b146100fe578063f7c618c11461011a5761007d565b80634cabf69414610082578063715018a61461009e5780638a2770b4146100a8575b600080fd5b61009c60048036038101906100979190610c45565b610138565b005b6100a6610259565b005b6100c260048036038101906100bd9190610be5565b6102e1565b005b6100de60048036038101906100d99190610b8b565b61042f565b005b6100e86104ef565b6040516100f59190610d6b565b60405180910390f35b61011860048036038101906101139190610b5e565b610518565b005b610122610610565b60405161012f9190610d86565b60405180910390f35b610140610636565b73ffffffffffffffffffffffffffffffffffffffff1661015e6104ef565b73ffffffffffffffffffffffffffffffffffffffff16146101b4576040517f08c379a00000000000000000000000000000000000000000000000000000000081526004016101ab90610e65565b60405180910390fd5b6101c885600161063e90919063ffffffff16565b61020957846040517f9ebc3cf40000000000000000000000000000000000000000000000000000000081526004016102009190610e01565b60405180910390fd5b6000600360008781526020019081526020016000209050858160000181905550848482600101919061023c929190610a11565b508282826002019190610250929190610a11565b50505050505050565b610261610636565b73ffffffffffffffffffffffffffffffffffffffff1661027f6104ef565b73ffffffffffffffffffffffffffffffffffffffff16146102d5576040517f08c379a00000000000000000000000000000000000000000000000000000000081526004016102cc90610e65565b60405180910390fd5b6102df6000610655565b565b826102f681600161071990919063ffffffff16565b61033757806040517f489ef0a800000000000000000000000000000000000000000000000000000000815260040161032e9190610e01565b60405180910390fd5b600033905061034585610730565b156103895784816040517f23f0655e000000000000000000000000000000000000000000000000000000008152600401610380929190610e1c565b60405180910390fd5b6103b181600360008881526020019081526020016000206004016107b890919063ffffffff16565b5083836003600088815260200190815260200160002060030160008473ffffffffffffffffffffffffffffffffffffffff1673ffffffffffffffffffffffffffffffffffffffff1681526020019081526020016000209190610414929190610a11565b50610428816803cb71f51fc55800006107e8565b5050505050565b610437610636565b73ffffffffffffffffffffffffffffffffffffffff166104556104ef565b73ffffffffffffffffffffffffffffffffffffffff16146104ab576040517f08c379a00000000000000000000000000000000000000000000000000000000081526004016104a290610e65565b60405180910390fd5b80600460006101000a81548173ffffffffffffffffffffffffffffffffffffffff021916908373ffffffffffffffffffffffffffffffffffffffff16021790555050565b60008060009054906101000a900473ffffffffffffffffffffffffffffffffffffffff16905090565b610520610636565b73ffffffffffffffffffffffffffffffffffffffff1661053e6104ef565b73ffffffffffffffffffffffffffffffffffffffff1614610594576040517f08c379a000000000000000000000000000000000000000000000000000000000815260040161058b90610e65565b60405180910390fd5b600073ffffffffffffffffffffffffffffffffffffffff168173ffffffffffffffffffffffffffffffffffffffff161415610604576040517f08c379a00000000000000000000000000000000000000000000000000000000081526004016105fb90610e45565b60405180910390fd5b61060d81610655565b50565b600460009054906101000a900473ffffffffffffffffffffffffffffffffffffffff1681565b600033905090565b600061064d836000018361094e565b905092915050565b60008060009054906101000a900473ffffffffffffffffffffffffffffffffffffffff169050816000806101000a81548173ffffffffffffffffffffffffffffffffffffffff021916908373ffffffffffffffffffffffffffffffffffffffff1602179055508173ffffffffffffffffffffffffffffffffffffffff168173ffffffffffffffffffffffffffffffffffffffff167f8be0079c531659141344cd1fd0a4f28419497f9722a3daafe3b4186f6b6457e060405160405180910390a35050565b600061072883600001836109be565b905092915050565b60008161074781600161071990919063ffffffff16565b61078857806040517f489ef0a800000000000000000000000000000000000000000000000000000000815260040161077f9190610e01565b60405180910390fd5b6107b033600360008681526020019081526020016000206004016109e190919063ffffffff16565b915050919050565b60006107e0836000018373ffffffffffffffffffffffffffffffffffffffff1660001b61094e565b905092915050565b600460009054906101000a900473ffffffffffffffffffffffffffffffffffffffff1673ffffffffffffffffffffffffffffffffffffffff1663095ea7b330836040518363ffffffff1660e01b8152600401610845929190610dd8565b602060405180830381600087803b15801561085f57600080fd5b505af1158015610873573d6000803e3d6000fd5b505050506040513d601f19601f820116820180604052508101906108979190610bb8565b50600460009054906101000a900473ffffffffffffffffffffffffffffffffffffffff1673ffffffffffffffffffffffffffffffffffffffff166323b872dd3084846040518463ffffffff1660e01b81526004016108f793929190610da1565b602060405180830381600087803b15801561091157600080fd5b505af1158015610925573d6000803e3d6000fd5b505050506040513d601f19601f820116820180604052508101906109499190610bb8565b505050565b600061095a83836109be565b6109b35782600001829080600181540180825580915050600190039060005260206000200160009091909190915055826000018054905083600101600084815260200190815260200160002081905550600190506109b8565b600090505b92915050565b600080836001016000848152602001908152602001600020541415905092915050565b6000610a09836000018373ffffffffffffffffffffffffffffffffffffffff1660001b6109be565b905092915050565b828054610a1d90610f30565b90600052602060002090601f016020900481019282610a3f5760008555610a86565b82601f10610a5857803560ff1916838001178555610a86565b82800160010185558215610a86579182015b82811115610a85578235825591602001919060010190610a6a565b5b509050610a939190610a97565b5090565b5b80821115610ab0576000816000905550600101610a98565b5090565b600081359050610ac381611022565b92915050565b600081359050610ad881611039565b92915050565b600081519050610aed81611050565b92915050565b600081359050610b0281611067565b92915050565b60008083601f840112610b1e57610b1d610f96565b5b8235905067ffffffffffffffff811115610b3b57610b3a610f91565b5b602083019150836001820283011115610b5757610b56610f9b565b5b9250929050565b600060208284031215610b7457610b73610fa5565b5b6000610b8284828501610ab4565b91505092915050565b600060208284031215610ba157610ba0610fa5565b5b6000610baf84828501610ac9565b91505092915050565b600060208284031215610bce57610bcd610fa5565b5b6000610bdc84828501610ade565b91505092915050565b600080600060408486031215610bfe57610bfd610fa5565b5b6000610c0c86828701610af3565b935050602084013567ffffffffffffffff811115610c2d57610c2c610fa0565b5b610c3986828701610b08565b92509250509250925092565b600080600080600060608688031215610c6157610c60610fa5565b5b6000610c6f88828901610af3565b955050602086013567ffffffffffffffff811115610c9057610c8f610fa0565b5b610c9c88828901610b08565b9450945050604086013567ffffffffffffffff811115610cbf57610cbe610fa0565b5b610ccb88828901610b08565b92509250509295509295909350565b610ce381610efa565b82525050565b610cf281610ea8565b82525050565b610d0181610e96565b82525050565b610d1081610ec6565b82525050565b6000610d23602683610e85565b9150610d2e82610faa565b604082019050919050565b6000610d46602083610e85565b9150610d5182610ff9565b602082019050919050565b610d6581610ef0565b82525050565b6000602082019050610d806000830184610cf8565b92915050565b6000602082019050610d9b6000830184610ce9565b92915050565b6000606082019050610db66000830186610cf8565b610dc36020830185610cda565b610dd06040830184610d5c565b949350505050565b6000604082019050610ded6000830185610cf8565b610dfa6020830184610d5c565b9392505050565b6000602082019050610e166000830184610d07565b92915050565b6000604082019050610e316000830185610d07565b610e3e6020830184610cda565b9392505050565b60006020820190508181036000830152610e5e81610d16565b9050919050565b60006020820190508181036000830152610e7e81610d39565b9050919050565b600082825260208201905092915050565b6000610ea182610ed0565b9050919050565b6000610eb382610ed0565b9050919050565b60008115159050919050565b6000819050919050565b600073ffffffffffffffffffffffffffffffffffffffff82169050919050565b6000819050919050565b6000610f0582610f0c565b9050919050565b6000610f1782610f1e565b9050919050565b6000610f2982610ed0565b9050919050565b60006002820490506001821680610f4857607f821691505b60208210811415610f5c57610f5b610f62565b5b50919050565b7f4e487b7100000000000000000000000000000000000000000000000000000000600052602260045260246000fd5b600080fd5b600080fd5b600080fd5b600080fd5b600080fd5b7f4f776e61626c653a206e6577206f776e657220697320746865207a65726f206160008201527f6464726573730000000000000000000000000000000000000000000000000000602082015250565b7f4f776e61626c653a2063616c6c6572206973206e6f7420746865206f776e6572600082015250565b61102b81610e96565b811461103657600080fd5b50565b61104281610ea8565b811461104d57600080fd5b50565b61105981610eba565b811461106457600080fd5b50565b61107081610ec6565b811461107b57600080fd5b5056fea26469706673582212203ff3ea935f501e70850993e42178fafe997f677f51718801fdaa8a8b2fea951964736f6c63430008060033",
  "immutableReferences": {},
  "source": "// SPDX-License-Identifier: MIT\npragma solidity >=0.8.6 <0.9.0;\n\nimport \"@openzeppelin/contracts/access/Ownable.sol\";\nimport \"@openzeppelin/contracts/utils/structs/EnumerableSet.sol\";\nimport \"@openzeppelin/contracts/token/ERC20/ERC20.sol\";\n\nerror E_NonExistentSurvey(bytes32 id);\nerror E_ExistingSurvey(bytes32 id);\nerror E_ExistingSubmission(bytes32 id, address surveyor);\n\ncontract SurveyReward is Ownable {\n  using EnumerableSet for EnumerableSet.Bytes32Set;\n  using EnumerableSet for EnumerableSet.AddressSet;\n\n  event SentReward(address surveyor, uint amount);\n\n  struct Survey {\n    bytes32 id;\n    string name;\n    string data;\n    mapping(address => string) submissions;\n    EnumerableSet.AddressSet surveyors;\n  }\n\n  // State variables\n  EnumerableSet.Bytes32Set private knownSurveys;\n  mapping(bytes32 => Survey) surveys;\n  address payable public rewardToken;\n\n  function addSurvey (bytes32 _id, string calldata _name, string calldata _data) public onlyOwner {\n    if (!knownSurveys.add(_id)) \n      revert E_ExistingSurvey(_id);\n\n    Survey storage survey = surveys[_id];\n    survey.id = _id;\n    survey.name = _name;\n    survey.data = _data;\n  }\n\n  modifier existingSurvey(bytes32 id) {\n    if (!knownSurveys.contains(id)) {\n      revert E_NonExistentSurvey(id);\n    }\n    _;\n  }\n\n  function setRewardToken(address payable _rewardToken) public onlyOwner {\n    rewardToken = _rewardToken;  \n  }\n\n  function hasAlreadySubmitted(bytes32 _surveyId) existingSurvey(_surveyId) private view returns (bool) {\n    return surveys[_surveyId].surveyors.contains(msg.sender);\n  }\n\n  function addSurveySubmission (bytes32 _surveyId, string calldata data) existingSurvey(_surveyId) public {\n    address payable _surveyor = payable(msg.sender);\n\n    if (hasAlreadySubmitted(_surveyId)) {\n      revert E_ExistingSubmission(_surveyId, _surveyor);\n    }\n\n    surveys[_surveyId].surveyors.add(_surveyor);\n    surveys[_surveyId].submissions[_surveyor] = data;\n\n    _sendReward(_surveyor, 70 ether);\n  }\n\n  function _sendReward(address payable surveyor, uint _amount) private {\n    ERC20(rewardToken).approve(address(this), _amount);\n    ERC20(rewardToken).transferFrom(address(this), surveyor, _amount);\n\n  }\n}\n",
  "sourcePath": "/media/data/projects/Survey_App/contracts/SurveyReward.sol",
  "compiler": {
    "name": "solc",
    "version": "0.8.6+commit.11564f7e.Emscripten.clang"
  },
  "schemaVersion": "3.4.2",
  "updatedAt": "2021-08-05T22:30:56.531Z",
  "networkType": "ethereum",
  "devdoc": {
    "kind": "dev",
    "methods": {
      "owner()": {
        "details": "Returns the address of the current owner."
      },
      "renounceOwnership()": {
        "details": "Leaves the contract without owner. It will not be possible to call `onlyOwner` functions anymore. Can only be called by the current owner. NOTE: Renouncing ownership will leave the contract without an owner, thereby removing any functionality that is only available to the owner."
      },
      "transferOwnership(address)": {
        "details": "Transfers ownership of the contract to a new account (`newOwner`). Can only be called by the current owner."
      }
    },
    "version": 1
  },
  "userdoc": {
    "kind": "user",
    "methods": {},
    "version": 1
  }
}